:020000040000FA
:0404000030EF02F0E7
:060408006E82B3ED0BF063
:100418006E80D8CF01F0E8CF02F0E0CF03F09EAABB
:1004280018EF02F01AEF02F028EF02F09DAA1FEF72
:1004380002F021EF02F028EF02F09E9AAECF6DF0A5
:10044800000E456E010E446E03C0E0FF02C0E8FFD7
:0C04580001C0D8FF6E9010001AEF0CF0ED
:10100000005374617465203D20253264200D000A70
:031010000A0000D3
:10101400010E246E1FBE11EF08F014EF08F0010E4C
:1010240015EF08F0000E256E3EC022F03FC023F0FD
:101034002550D8B420EF08F022EF08F039EF08F07B
:101044002206D8A023062550D8A42BEF08F02DEFB4
:1010540008F033EF08F0000E216E2B0E206E37EFF0
:1010640008F0000E216E2D0E206E20C025F0000E1B
:10107400276E1F0E266E000E6A6E6EEF08F02606AF
:10108400D8A0270626504B0FD96EDA6A1EC004F08A
:101094001FC005F0000E076E0A0E066E95EC0AF0EE
:1010A40004C00AF005C00BF036EC0CF00A50300F07
:1010B400DF6E000E246E2206D8A023061EC004F0A4
:1010C4001FC005F0000E076E0A0E066E33EC0AF020
:1010D40004C01EF005C01FF027BE79EF08F02750AA
:1010E40008E12604D8A079EF08F07BEF08F08CEF34
:1010F40008F01E501F10D8A482EF08F084EF08F007
:1011040041EF08F02450D8A48AEF08F08CEF08F0DF
:1011140041EF08F02550D8B492EF08F094EF08F0AE
:101124009DEF08F02606D8A0270626504B0FD96E4F
:10113400DA6A25C0DFFF1CC014F01DC015F026506C
:101144004B0F166E22C017F023C018F040EC0BF0C2
:101154001200A9EC0CF063EC0CF0B3EC0CF0B0EC66
:101164000CF0000E496E000E486E0F0E366E91ECB8
:101174000CF046C03CF047C03DF03C50465C3A6E33
:101184003D5047583B6E3BBED0EF08F03B5008E162
:101194003A04D8A0D0EF08F0D2EF08F0BBEF08F083
:1011A400010E366E48C037F049C038F091EC0CF0AF
:1011B40025EF09F044504510D8A4E3EF08F0E5EF1B
:1011C40008F0EBEF08F0000E496E000E486EBBEF1E
:1011D40008F042504310D8A4F2EF08F0F4EF08F0FE
:1011E40003EF09F044044510D8A4FBEF08F0FDEF29
:1011F40008F003EF09F0000E496E010E486EBBEFD4
:1012040008F06B506C10D8A40AEF09F00CEF09F049
:101214003FEF09F044044510D8A413EF09F015EF8B
:1012240009F03FEF09F0000E496E020E486EBBEF65
:1012340008F075EC0CF08BEC0BF0E5EF08F083ECA8
:101244000CF01DEF09F048C03AF049C03BF03B50A8
:10125400000AD8B430EF09F0BBEF08F03A50000AA6
:10126400D8B4DCEF08F0010AD8B41BEF09F0030A84
:10127400D8B421EF09F0BBEF08F0BBEF08F030EF72
:1012840002F02A50D96EDA6ADFCFF6FF100EF76E3D
:101294000800F550250AD8A452EF09F054EF09F0DC
:1012A400BAEF09F02A50D96EDA6ADF2A000E3F6ECF
:1012B400000E3E6E3EC04AF0406841682AC00AF003
:1012C4002BC00BF0EDEC0AF00AC03EF00BC03FF06F
:1012D4003FBE71EF09F06FEF09F076EF09F04A8035
:1012E4003E6C3F1ED8B03F2A2A50D96EDA6ADF50CE
:1012F400306E30C0F6FF100EF76E0800F550640A29
:10130400D8B487EF09F089EF09F097EF09F030C0FE
:10131400F6FF100EF76E0800F550690AD8A495EF91
:1013240009F097EF09F0B4EF09F02B50D96EDA6A9F
:10133400020EDF26DF5CD96EDA6ADECF2CF0DECF58
:101344002DF02A50D96EDA6A3028DF6E28C01CF0DE
:1013540029C01DF02CC01EF02DC01FF00AEC08F0AF
:10136400CDEF09F02A50D96EDA6ADF2ACDEF09F001
:101374002A50D96EDA6ADFCFF6FF100EF76E080036
:10138400F550056E066A28C007F029C008F0CEECB7
:1013940009F0B4EF09F0120007500810D8B4D5EFE3
:1013A40009F0D7EF09F0E0EF09F007500810D8A4CE
:1013B400DEEF09F0E0EF09F0E5EF09F005509EECEF
:1013C4000CF032EF0AF020EE0AF00750D92608504C
:1013D400DA22DE50DE10D8B4F2EF09F0F4EF09F0AF
:1013E4000FEF0AF020EE0AF00750D9260850DA224F
:1013F40010EE03F00750E1260850E222DE50E65CCE
:10140400E650800A0D6EDE50800A0D58D8B00DEFFC
:101414000AF00FEF0AF032EF0AF020EE03F0075063
:10142400D9260850DA22DECF09F0DDCF0AF007C052
:10143400D9FF08C0DAFFDECF0BF0DDCF0CF0095086
:101444000B24D96E0A500C20DA6E05C0DFFF20EEA3
:1014540003F00750D9260850DA22DE2A000EDD22D6
:101464001200000E096E07BE3CEF0AF03AEF0AF0D4
:1014740042EF0AF0066C071ED8B0072A010E096E67
:1014840005BE49EF0AF047EF0AF04FEF0AF0046C8B
:10149400051ED8B0052A010E091A000E0B6E000EA7
:1014A4000A6E06500710D8B45AEF0AF05CEF0AF03F
:1014B40084EF0AF0010E086E64EF0AF0D890063645
:1014C4000736082A07AE69EF0AF06BEF0AF060EFFF
:1014D4000AF0D8900A360B360650045C07500558BB
:1014E400D8A077EF0AF079EF0AF07EEF0AF0065001
:1014F400045E0750055A0A80D89007320632082E37
:101504006BEF0AF00950D8B48AEF0AF08CEF0AF0B6
:1015140090EF0AF00A6C0B1ED8B00B2A0AC004F034
:101524000BC005F01200000E096E05BE9EEF0AF016
:101534009CEF0AF0A4EF0AF0046C051ED8B0052A4B
:10154400010E096E07BEABEF0AF0A9EF0AF0AFEF88
:101554000AF0066C071ED8B0072A06500710D8B444
:10156400B6EF0AF0B8EF0AF0DCEF0AF0010E086EED
:10157400C0EF0AF0D89006360736082A07AEC5EF42
:101584000AF0C7EF0AF0BCEF0AF00650045C0750FB
:101594000558D8A0D0EF0AF0D2EF0AF0D6EF0AF03F
:1015A4000650045E0750055AD89007320632082EBA
:1015B400C7EF0AF00950D8B4E2EF0AF0E4EF0AF0FA
:1015C400E8EF0AF0046C051ED8B0052A04C004F044
:1015D40005C005F01200000E0E6E000E0D6E0A50CE
:1015E400D96EDA6ADFCFF6FF100EF76E0800F550F9
:1015F4002A0AD8A400EF0BF002EF0BF028EF0BF04F
:101604000A50D96EDA6ADF2A0B50D96EDA6A020EF2
:10161400DF26DF5CD96EDA6ADECF0DF0DECF0EF0A6
:101624003BEF0BF00DC004F00EC005F0000E076E8A
:101634000A0E066E50EC0CF00C5004240D6E000ED5
:1016440005200E6E0A50D96EDA6ADF2A0A50D96E66
:10165400DA6ADFCFF6FF100EF76E0800F550D00FF0
:101664000C6E090E0C6439EF0BF03BEF0BF014EF2A
:101674000BF00DC00AF00EC00BF012004AA045EFAB
:101684000BF047EF0BF04FEF0BF016C00EF014C049
:101694000FF015C010F0FAEC0BF018BE56EF0BF07B
:1016A40054EF0BF05AEF0BF0000E186E000E176E8D
:1016B400000E1B6E000E1A6E6CEF0BF0000E066E21
:1016C400200E056E14C007F015C008F0CEEC09F02A
:1016D4001A4A1B2A17501A5C1B50800A196E18509C
:1016E400800A1958D8A079EF0BF07BEF0BF060EF6C
:1016F4000BF04AB080EF0BF082EF0BF08AEF0BF0A7
:1017040016C00EF014C00FF015C010F0FAEC0BF078
:10171400120046C006F047C007F06DC008F09EEF07
:101724000BF06D500818D8B49AEF0BF09CEF0BF047
:101734009EEF0BF0B2EF0BF00650465C046E0750C0
:101744004758056E05BEB0EF0BF0055009E1320EA7
:10175400045CD8A0B0EF0BF0B2EF0BF093EF0BF0FA
:10176400120006009DA2B9EF0BF0BBEF0BF0C5EF22
:101774000BF09EA2C0EF0BF0C2EF0BF0C5EF0BF025
:101784009E92464A472A47BED1EF0BF0110E465CA3
:10179400270E4758D8A0D1EF0BF0D3EF0BF0D7EFBB
:1017A4000BF0000E476E000E466E6E92110033C0B1
:1017B40035F0E7EF0BF031C028F032C029F0350ED8
:1017C4002A6E34C02BF043EC09F035C0F6FF100E3E
:1017D400F76E0800F5500009D8A4F3EF0BF0F5EF0D
:1017E4000BF0DDEF0BF0000E326E000E316E1200C6
:1017F400000E136E000E126E0BEF0CF011C005F00C
:10180400066A0FC007F010C008F0CEEC09F0124AC7
:10181400132A0E501224D96EDA6ADF50116E115059
:10182400D8A417EF0CF019EF0CF000EF0CF0120035
:101834006C0EF66E190EF76E000EF86E0900F5CFF9
:101844006BF00900F5CF6CF00900F5CF6DF000EEF8
:101854003EF02D0EEE6AE806FDE16E906E92000EEB
:10186400F86E0001ABEF08F00BBE3BEF0CF03DEF60
:101874000CF043EF0CF00AC00AF00BC00BF04FEF72
:101884000CF00AC00CF00BC00DF00C1E0D1E0C4A1F
:101894000D2A0CC00AF00DC00BF012000450060211
:1018A400F3CF08F0F4CF09F004500702F3500926EF
:1018B40005500602F350092608C004F009C005F0DB
:1018C4001200948C948EAB8EB00EAB6EAC84AC983C
:1018D400AC8A000EB06E190EAF6E000EB86EF28CAC
:1018E4009D8A9F9A12008C84000E436E010E426EF4
:1018F400000E6C6E000E6B6E000E456E000E446E94
:1019040012008C94000E436E000E426E000E6C6E3C
:10191400010E6B6E000E456E000E446E1200370E03
:10192400396E000E316E000E326E36C033F0390E51
:10193400346ED9EC0BF01200046E9EA8A4EF0CF0E8
:10194400A6EF0CF09FEF0CF004C0ADFF12007F0E69
:10195400CA6E9D824E0ECB6E9F82120095948C941B
:0B1964001200D08EF28E120001003144
:020000040020DA
:08000000FFFFFFFFFFFFFFFF00
:020000040030CA
:0E000000FF421F1EFF8381FF0FC00FE00F4065
:00000001FF
